:100000001AC029C028C027C026C078C024C023C079
:1000100022C021C020C01FC01EC01DC01CC00102C4
:100020000408102002020202020200000000380050
:1000300000000000370011241FBECFE5D2E0DEBF74
:10004000CDBF20E0A0E6B0E001C01D92A936B20706
:10005000E1F73FD0B2C0D4CF61E080E001C00895A5
:10006000CF93DF9390E0FC01E25EFF4F2491FC010F
:10007000EC5DFF4F8491882349F190E0880F991F30
:10008000FC01E05DFF4FA591B491865D9F4FFC019F
:10009000C591D4919FB7611108C0F8948C912095B7
:1000A00082238C93888182230AC0623051F4F894B1
:1000B0008C91322F309583238C938881822B888377
:1000C00004C0F8948C91822B8C939FBFDF91CF91C9
:1000D000089581B781BF5CD0BFDFC1DFFECF80B79D
:1000E000807F80BF80B7806880BF8CB580648CBD06
:1000F0008FEF8DBD80B7846080BF08951F920F92EF
:100100000FB60F9211242F933F938F939F93AF932A
:10011000BF938091610090916200A0916300B091C3
:1001200064003091600026E0230F2D3730F029E87D
:10013000230F0396A11DB11D03C00296A11DB11D81
:10014000209360008093610090936200A09363000D
:10015000B09364008091650090916600A091670063
:10016000B09168000196A11DB11D80936500909328
:100170006600A0936700B0936800BF91AF919F9114
:100180008F913F912F910F900FBE0F901F90189558
:100190008AB582608ABD8AB581608ABD83B7887F4F
:1001A000826083BF789489B7826089BF98DF86B107
:0E01B0008877836886B9379A0895F894FFCF50
:00000001FF
